:204000000000000000000000000000000000000000000000000000000000000000000000A0
:20402000000000000000000000000000000000000000000000000000000000000000000080
:20404000000000000000000000000000000000000000000000000000000000000000000060
:20406000000000000000000000000000000000000000000000000000000000000000000040
:204E00000000000000000000000000000000000054445C584556465E404742535A4A434BB9
:204E2000244E2C4E4474C4A18429187CC7F7937FA1FF5FFFCD514F2E00CD434F211014E536
:204E4000CD834E211000E521104EE5CD6C4E21204ECD1E4F210040E52100C0E5212D2DE57E
:204E6000210050E5AFF533CD8F4E18FEF1E1D1F51D19067FED597EE61FF640ED792B1DF253
:204E8000744EC9E1E3067FED693E40B4ED79C9E1221B4FC1E13BF132D84E7D320B4F32EACF
:204EA0004E7C0878E6FE8787876F2600CB14545D2929197987856F8C9567D119CB40280EF8
:204EC0003E38A228051150E0180311002019EBE1D579856F8C95671100004B78BF1F30016E
:204EE00019CB23CB12B720F579D60032F54E084FD118177DC6006F8C95677AC62057E638D8
:204F000020087BC6505F7ACEC05706007BD95FD97AD957D9CD294F0D20D9210000E9222C62
:204F20004FC9E13BC1D9D1D9E37ED90100006F260029097E23666FD5CD614FD11313D9233C
:204F400010E7C94D21824F7EE6FCB1067FED7977C9F32A3900EBED5621FBC9223800FBEB6D
:204F6000C97A430E09EDA0EDA0C6085758EDA0EDA0C6085758EDA0EDA0C6085758EDA0ED55
:034F8000A0C99D28
:00000001FF
